:100000000C942A000C943C000C943C000C943C0092
:100010000C943C000C943C000C943C000C943E006E
:100020000C943C000C943C000C943C000C943C0060
:100030000C943C000C943C000C943C000C943C0050
:100040000C943C000C943C000C943C000C943C0040
:100050000C943C0011241FBECFE5D8E0DEBFCDBF1D
:1000600020E0A0E6B0E001C01D92A236B207E1F7A1
:100070000E94A8000C94B8000C9400001F920F92EC
:100080000FB60F9211242F938F939F932FE986E839
:1000900091E0215080409040E1F700C00000809145
:1000A00060009091610001969093610080936000E0
:1000B0008430910549F16CF481309105E1F01CF434
:1000C000892BB9F031C082309105C1F0039761F5F9
:1000D00018C08730910509F134F485309105B9F0E5
:1000E000069711F517C088309105D1F00997E1F412
:1000F0001AC018BA19C081E088BB16C082E088BB5C
:1001000013C084E088BB10C088E088BB0DC080E1CC
:1001100088BB0AC080E288BB07C080E488BB04C0FB
:1001200080E888BB01C018BA80916000909161009E
:100130000A9721F410926100109260001DBC1CBC53
:100140009F918F912F910F900FBE0F901F90189538
:1001500018BA8FEF87BB1FBC92E09EBD1DBC1CBCB4
:1001600017BC16BC8BBD8ABD80E189BF7894FFCFD8
:04017000F894FFCF31
:00000001FF
